RA121440295WG4N37LN         0      98RESTORING ROOTS COOPERATIVE LLC                                                12 PARLEY VALE        JAMAICA PLAIN         MA02130                                                 TIMOTHY MCKENNA                                                                12 PARLEY VALE        JAMAICA PLAIN         MA02130                                                 TIMOTHY MCKENNA            8574982574             mckenna.tim@gmail.com                                 L            
RE2019 821084392         0             RESTORING ROOTS COOPERATIVE LLC                                                12 PARLEY VALE        JAMAICA PLAIN         MA02130    N                                            F 0TIMOTHY MCKENNA            8574982574                    mckenna.tim@gmail.com                                                                                                                                                                                                                     
RW606482925ELISEO                        CASTILLO                                      120 WEBSTER ST #1     EAST BOSTON           MA02128                                                 000000140000000000000000000014000000000008680000001400000000000203000000000000000000000000000000000000000000000000000000000000000000000000000000000000000000000000000000000000000000000000000000000000000000000000000000000000000000000000000000000000000000000000000000000000000000000000000000000000000 0 00                       
RW217417428JACQUELINE                    EWING                                         19 HANSON ST          SOMMERVILLE           MA02143                                                 000025725140000023009600002572514000001595000000257251400000037305000000000000000000000000000000000000000000000000000000000000000000000000000000000000000000000000000000000000000000000000000000000000000000000000000000000000000000000000000000000000000000000000000000000000000000000000000000000000000 0 00                       
RW085824123JEREMY         M              ORENSTEIN                                     19 HANSON ST          SOMERVILLE            MA02143                                                 000012229550000010703000001222955000000758260000122295500000017735000000000000000000000000000000000000000000000000000000000000000000000000000000000000000000000000000000000000000000000000000000000000000000000000000000000000000000000000000000000000000000000000000000000000000000000000000000000000000 0 00                       
RW221881516LIAM                          KELLY                                         234 HYDE PARK AVE, #2 JAMAICA PLAIN MA 02130MA02130                                                 000011843170000010560500001184317000000734290000118431700000017174000000000000000000000000000000000000000000000000000000000000000000000000000000000000000000000000000000000000000000000000000000000000000000000000000000000000000000000000000000000000000000000000000000000000000000000000000000000000000 0 00                       
RW017701519NOAH           D              MCKENNA                                       14 CHESTNUT PLACE     JAMAICA PLAIN         MA02130                                                 000030194940000037355600003019494000001872110000301949400000043783000000000000000000000000000000000000000000000000000000000000000000000000000000000000000000000000000000000000000000000000000000000000000000000000000000000000000000000000000000000000000000000000000000000000000000000000000000000000000 0 00                       
RT0000005000000008013280000000000816287000000008013280000000000496834000000008013280000000000116200000000000000000000000000000000000000000000000000000000000000000000000000000000000000000000000000000000000000000000000000000000000000000000000000000000000000000000000000000000000000000000000000000000000000000000000000000000000000000000000000000000000000000000000000000000000000000000000000000000000000000000000000000                                                                                                  
RF     000000005                                                                                                                                                                                                                                                                                                                                                                                                                                                                                                                